:020000040800F2
:10000000000002208D160008F1070008F307000821
:10001000F5070008F7070008F907000800000000CE
:10002000000000000000000000000000FB070008C6
:10003000FD07000800000000FF0700080108000895
:10004000DD160008DD160008DD160008DD160008C4
:10005000DD160008DD160008DD160008DD160008B4
:10006000DD160008DD160008DD160008DD160008A4
:10007000DD160008DD160008DD160008DD16000894
:10008000DD160008DD160008DD160008000000007F
:10009000000000000000000000000000DD16000865
:1000A000DD160008DD160008DD160008DD16000864
:1000B000DD160008DD160008DD160008DD16000854
:1000C000DD160008DD160008DD160008DD16000844
:1000D000DD160008DD160008090800080000000011
:1000E000DD160008DD160008DD160008000000001F
:1000F000000000000000000000000000DD16000805
:1001000000000000DD160008DD160008DD160008FE
:1001100000000000000000000000000000000000DF
:10012000DD160008DD160008DD160008DD160008E3
:10013000DD160008000000000000000000000000C4
:10014000000000000000000000000000DD160008B4
:10015000DD160008DD160008DD1600081908000885
:10016000DD160008DD160008000000000000000099
:10017000000000000000000000000000000000007F
:1001800000000000DD160008000000000000000074
:08019000DD160008DD16000871
:1001980010B5054C237833B9044B13B10448AFF3B9
:1001A80000800123237010BD0C0000200000000017
:1001B8003817000808B5034B1BB103490348AFF3D0
:1001C800008008BD0000000010000020381700085B
:1001D80053B94AB9002908BF00281CBF4FF0FF31A6
:1001E8004FF0FF3000F06EB9ADF1080C6DE904CEA8
:1001F80000F006F8DDF804E0DDE9022304B07047FA
:100208002DE9F047089D04468C46002B40F083807A
:100218008A42174647D9B2FA82F242B1C2F12000A7
:1002280024FA00F09140974040EA010C94404FEACC
:100238001748230CBCFBF8F61FFA87FE08FB16C10B
:1002480043EA014306FB0EF1994209D9FB1806F16E
:10025800FF3080F01981994240F21681023E3B44FA
:100268005B1AA4B2B3FBF8F008FB103344EA03446A
:1002780000FB0EFEA64509D93C1900F1FF3380F0BA
:100288000581A64540F2028102383C4440EA064016
:10029800A4EB0E0400261DB1D4400023C5E9004399
:1002A8003146BDE8F08702B9FFDEB2FA82F2002AD1
:1002B80050D1CB1B4FEA174E1FFA87F80126B3FB24
:1002C800FEFC210C0EFB1C3341EA034108FB0CF336
:1002D8008B4207D979180CF1FF3002D28B4200F219
:1002E800E9808446C91AA3B2B1FBFEF00EFB1011D7
:1002F80043EA014408FB00F8A04507D93C1900F17E
:10030800FF3302D2A04500F2D9801846A4EB0804B6
:1003180040EA0C40BFE78B4209D9002D00F0B180BC
:100328000026C5E9000130463146BDE8F087B3FA3A
:1003380083F6002E4AD18B4202D3824200F2B88063
:10034800841A61EB030101208C46002DA8D0C5E971
:10035800004CA5E7C2F1200320FA03F6974001FA02
:1003680002F04FEA174ED9403043030CB1FBFEF6BA
:100378001FFA87F80EFB161143EA014306FB08F142
:10038800994204FA02F409D9FB1806F1FF3C80F0FF
:100398008D80994240F28A80023E3B445B1A81B2CA
:1003A800B3FBFEF00EFB103341EA034100FB08F3F8
:1003B8008B4207D9791800F1FF3C73D28B4271D96F
:1003C80002383944CB1A40EA064678E7C6F1200CD1
:1003D80003FA06F422FA0CF31C4320FA0CF701FA8C
:1003E80006F34FEA144E21FA0CF11F433B0CB1FB04
:1003F800FEF91FFA84F80EFB191143EA014109FBC3
:1004080008FA8A4502FA06F200FA06F308D96118D2
:1004180009F1FF3048D28A4546D9A9F10209214499
:10042800A1EB0A01BFB2B1FBFEF00EFB101147EAC7
:10043800014700FB08F8B84507D9E71900F1FF3173
:100448002ED2B8452CD90238274440EA0940A7EBF8
:100458000807A0FB02894F45C64649461AD317D05C
:100468005DB1B3EB0E0267EB010707FA0CFCF24033
:100478004CEA0202F740C5E9002700263146BDE8EC
:10048800F0872E4628460BE70646E9E61846FDE6BD
:100498004345E5D2B8EB020E69EB04010138DFE70A
:1004A8000846D2E760468DE78146B9E7664675E7B4
:1004B80030464AE7ACF1020C394413E702383C44B1
:1004C80024E700BF704700BF30B589B0002403940B
:1004D80004940594069407940194134B1A6B42F004
:1004E80001021A631A6B02F001020192019A029446
:1004F8001A6B42F004021A631B6B03F004030293A5
:10050800029B0A4D22462021284600F039FB202371
:100518000393012304930594069403A9284600F045
:100528005BFA09B030BD00BF00380240000002404D
:1005380072B6FEE708B50A480A4B03604FF4E13388
:10054800436000238360C36003610C2242618361BE
:10055800C36100F06DFF00B908BDFFF7E9FF00BFF8
:10056800280000200010014008B50A480A4B036023
:100578004FF4E133436000238360C36003610C22BE
:1005880042618361C36100F053FF00B908BDFFF702
:10059800CFFF00BFA80000200044004008B50A486B
:1005A8000A4B03604FF4E133436000238360C36068
:1005B80003610C2242618361C36100F039FF00B915
:1005C80008BDFFF7B5FF00BF680000200014014018
:1005D80000B595B03022002108A801F0A1F8002349
:1005E800039304930593069307930193184A116C98
:1005F80041F080511164126C02F080520192019A0C
:100608000293144A116841F440411160126802F4DF
:1006180040420292029A0222089201220B92102270
:100628000C920E9308A800F0B1FA68B90F2303934F
:100638000021049105910691079103A800F0ECFCB4
:1006480020B915B05DF804FBFFF772FFFFF770FFE4
:10065800003802400070004008B500F013F9FFF7B9
:10066800B7FFFFF731FFFFF765FFFFF77DFFFFF7E4
:1006780095FFFEE782B0002100910B4B5A6C42F4C3
:1006880080425A645A6C02F480420092009A0191A6
:100698001A6C42F080521A641B6C03F08053019369
:1006A800019B02B0704700BF0038024010B58CB003
:1006B80000230793089309930A930B930368444A0A
:1006C800934207D0434A934229D0434A934252D097
:1006D8000CB010BD00220192404B596C41F0100142
:1006E8005964596C01F01001019101990292196B3A
:1006F80041F0010119631B6B03F001030293029B94
:100708004FF4C063079302230893099203230A93C3
:1007180007230B9307A9324800F05EF9D8E70024B5
:1007280003942E4B1A6C42F400321A641A6C02F4C9
:1007380000320392039A04941A6B42F001021A637E
:100748001B6B03F001030493049B0C230793022300
:100758000893099403230A9307230B9307A92048B6
:1007680000F03AF922462146262000F0C9F8262052
:1007780000F0FAF8ACE700240594184B5A6C42F0E4
:1007880020025A645A6C02F020020592059A0694D7
:100798001A6B42F004021A631B6B03F004030693FE
:1007A800069BC023079302230893099403230A9303
:1007B80008230B9307A90B4800F00EF9224621469F
:1007C800472000F09DF8472000F0CEF880E700BFF2
:1007D800001001400044004000140140003802406D
:1007E8000000024000080240FEE7FEE7FEE7FEE7E1
:1007F800FEE770477047704708B500F05DF808BD20
:1008080008B5024800F0A2FE08BD00BFA8000020FD
:1008180008B5024800F09AFE08BD00BF6800002035
:10082800054BD3F8882042F47002C3F888204FF0B3
:1008380000629A60704700BF00ED00E010B5044602
:100848000E4B18784FF47A73B3FBF0F30C4A106828
:10085800B0FBF3F000F096F868B90F2C01D901202D
:100868000AE0002221464FF0FF3000F049F8034B20
:100878005C60002000E0012010BD00BF04000020E3
:100888000000002008B50B4B1A6842F400721A6089
:100898001A6842F480621A601A6842F480721A6018
:1008A800032000F01BF80020FFF7C8FFFFF7E2FE67
:1008B800002008BD003C0240034A1168034B1B7826
:1008C8000B441360704700BFE800002004000020BC
:1008D800014B1868704700BFE8000020074AD3683A
:1008E80023F4E0631B041B0C000200F4E0600343E4
:1008F80043F0BF6343F40033D360704700ED00E07A
:1009080030B4174BDB68C3F30223C3F10704042C8C
:1009180028BF04241D1D062D18D9033B4FF0FF35B1
:1009280005FA04F421EA0401994005FA03F322EADE
:100938000303194300280BDB0901C9B200F1604029
:1009480000F5614080F8001330BC70470023E5E7EC
:1009580000F00F000901C9B2024B1954F4E700BFB7
:1009680000ED00E014ED00E0002807DB00F01F02B6
:10097800400901239340024A42F82030704700BFE3
:1009880000E100E00138B0F1807F0AD2064B5860E0
:10099800064AF02182F823100020986007221A6086
:1009A80070470120704700BF10E000E000ED00E054
:1009B80090F83530DBB2022B03D080234365012049
:1009C8007047052380F835300268136823F0010367
:1009D800136000207047000000230F2B00F2C7802F
:1009E800F0B583B039E0042200E00022B2403A4377
:1009F80002345F4E46F824205E4A1468EA4324EA2B
:100A080005064F6817F4803F01D045EA0406594CA3
:100A18002660646802EA04064F6817F4003F01D0B4
:100A280045EA0406534C6660A46802EA04064F6867
:100A380017F4801F01D045EA04064E4CA660E4680E
:100A480022404E6816F4001F01D045EA0402494CC2
:100A5800E26001330F2B00F2888001229A400C6873
:100A680004EA020532EA0404F3D14C68661E012E3A
:100A780003D9112C01D0122C12D186685F000324EF
:100A8800BC4026EA0406CC68BC403443846046680F
:100A980026EA02064C68C4F300129A4032434260C8
:100AA800C7685E000324B440E24327EA04078C6861
:100AB800B4403C43C4604C68022C01D0122C13D1C2
:100AC800DF08083750F827E003F007044FEA840CE2
:100AD8000F2404FA0CF42EEA040E0C6904FA0CF440
:100AE80044EA0E0440F82740046814404A6802F0BB
:100AF8000302B240224302604A6812F0805FA8D025
:100B0800002201921C4A546C44F480445464526C90
:100B180002F480420192019A9C08A61C144A52F8D9
:100B2800267003F0030296000F22B24027EA02075C
:100B3800124A90423FF459AF02F5806290420ED0BB
:100B480002F5806290420CD002F5806290420AD091
:100B580002F5806290423FF446AF072246E7012241
:100B680044E7022242E7032240E703B0F0BD7047A2
:100B780000380140003C01400038024000000240BB
:100B88000AB181617047090481617047002800F04B
:100B9800D98170B582B00446036813F0010F3BD0C9
:100BA800A64B9B6803F00C03042B2CD0A34B9B682B
:100BB80003F00C03082B21D06368B3F5803F4FD0B6
:100BC800B3F5A02F52D09D4B1A6822F480321A60D8
:100BD8001A6822F480221A606368002B50D0FFF74D
:100BE80077FE0546954B1B6813F4003F14D1FFF7B9
:100BF8006FFE401B6428F5D90320AAE18F4B5B6880
:100C080013F4800FD8D08D4B1B6813F4003F03D02A
:100C18006368002B00F09881236813F0020F54D00A
:100C2800864B9B6813F00C0F3ED0844B9B6803F0F7
:100C38000C03082B33D0E368002B67D0804B0122CC
:100C48001A60FFF745FE05467C4B1B6813F0020F40
:100C580053D1FFF73DFE401B0228F5D9032078E168
:100C6800764A136843F480331360B5E7734B1A6808
:100C780042F480221A601A6842F480321A60ABE7A4
:100C8800FFF726FE05466D4B1B6813F4003FC3D0E3
:100C9800FFF71EFE401B6428F5D9032059E1674B76
:100CA8005B6813F4800FC6D1644B1B6813F0020F06
:100CB80003D0E368012B40F04981604A136823F0B0
:100CC800F803216943EAC1031360236813F0080F8E
:100CD80040D0636963B35B4B01221A60FFF7F8FDEC
:100CE8000546564B5B6F13F0020F33D1FFF7F0FD4B
:100CF800401B0228F5D903202BE1504A136823F042
:100D0800F803216943EAC1031360DEE74C4B002274
:100D18001A60FFF7DDFD0546484B1B6813F0020F0C
:100D2800D3D0FFF7D5FD401B0228F5D9032010E1E9
:100D3800444B00221A60FFF7CBFD05463F4B5B6F23
:100D480013F0020F06D0FFF7C3FD401B0228F5D9A8
:100D58000320FEE0236813F0040F78D0374B1B6C98
:100D680013F0805F0DD100230193344B1A6C42F0CD
:100D780080521A641B6C03F080530193019B012578
:100D880000E00025304B1B6813F4807F21D0A36856
:100D9800012B32D0052B36D0284B1A6F22F00102D6
:100DA8001A671A6F22F004021A67A368002B34D05E
:100DB800FFF78EFD0646214B1B6F13F0020F45D13E
:100DC800FFF786FD801B41F288339842F3D9032050
:100DD800BFE01D4A136843F480731360FFF778FD82
:100DE8000646194B1B6813F4807FD0D1FFF770FDBE
:100DF800801B0228F5D90320ABE0104A136F43F09B
:100E080001031367D1E70D4B1A6F42F004021A670A
:100E18001A6F42F001021A67C7E7FFF759FD064645
:100E2800064B1B6F13F0020F10D0FFF751FD801B0C
:100E380041F288339842F3D903208AE0003802400F
:100E480000004742800E474200700040E5B9A369A0
:100E5800002B7DD0464A926802F00C02082A51D035
:100E6800022B17D0434B00221A60FFF731FD0446CE
:100E78003F4B1B6813F0007F42D0FFF729FD001B92
:100E88000228F5D9032064E0394A136C23F0805313
:100E98001364DCE7374B00221A60FFF719FD05469B
:100EA800334B1B6813F0007F06D0FFF711FD401B82
:100EB8000228F5D903204CE0E369226A1343626AE9
:100EC80043EA8213A26A5208013A43EA0243E26AF9
:100ED80043EA0263264A5360264B01221A60FFF751
:100EE800F7FC0446224B1B6813F0007F06D1FFF77E
:100EF800EFFC001B0228F5D903202AE0002028E097
:100F0800002026E0012B26D0194B5B6803F48001F2
:100F1800E269914221D103F03F02216A8A421ED13F
:100F2800616A47F6C0721A408A421AD103F4403205
:100F3800A16A8A4217D103F07063E26A934214D11E
:100F4800002006E001207047012002E0012000E0B7
:100F5800002002B070BD0120FBE70120F9E7012065
:100F6800F7E70120F5E70120F3E70120F1E700BFEB
:100F78000038024060004742F8B5244B9B6803F0F4
:100F88000C03042B3DD0082B3DD1204B5A6802F0AE
:100F98003F025B6813F4800F12D01C4B5968C1F3F1
:100FA800881100231A48A1FB0001FFF711F9174B1C
:100FB8005B68C3F3014301335B00B0FBF3F023E04C
:100FC800124B5B68C3F388135C010025E41A65F1D2
:100FD8000005AE0146EA9466A701381B66EB0501D9
:100FE800CC0044EA5074C500E81844F100018B02B3
:100FF80043EA90538402204619460023FFF7E8F895
:10100800D5E7034800E00348F8BD00BF00380240B8
:1010180040787D010024F400002800F09B8070B522
:101028000D4604464F4B1B6803F00F038B4208D252
:10103800CBB24C4A1370136803F00F038B4240F095
:101048008B80236813F0020F17D013F0040F04D01D
:10105800454A936843F4E0539360236813F0080FFC
:1010680004D0414A936843F4604393603E4A9368CE
:1010780023F0F003A1680B439360236813F0010F7A
:1010880032D06368012B21D09A1E012A25D9364A0D
:10109800126812F0020F61D033498A6822F0030205
:1010A80013438B60FFF714FC06462F4B9B6803F035
:1010B8000C036268B3EB820F16D0FFF709FC801BA4
:1010C80041F288339842F0D9032042E0264A126858
:1010D80012F4003FE0D101203BE0234A126812F0ED
:1010E800007FD9D1012034E01E4B1B6803F00F03A9
:1010F800AB4207D9EAB21B4B1A701B6803F00F0307
:10110800AB422DD1236813F0040F06D0164A93681A
:1011180023F4E053E1680B439360236813F0080F4E
:1011280007D0114A936823F46043216943EAC10355
:101138009360FFF721FF0C4B9B68C3F303130B4A23
:10114800D35CD8400A4B18600A4B1868FFF776FB47
:10115800002070BD012070470120FAE70120F8E760
:101168000120F6E7003C0240003802405017000812
:101178000000002008000020014B1868704700BFDD
:101188000000002008B5FFF7F7FF044B9B68C3F386
:101198008223034AD35CD84008BD00BF0038024010
:1011A8006017000808B5FFF7E7FF044B9B68C3F317
:1011B8004233034AD35CD84008BD00BF0038024020
:1011C800601700080268D36823F49073D36002683C
:1011D800536923F001035361202380F83A307047A4
:1011E80090F83930DBB2212B01D002207047836898
:1011F800B3F5805F17D0036A5A1C02621A78036835
:101208005A60C38C9BB2013B9BB2C3844BB9026842
:10121800D36823F08003D3600268D36843F04003A7
:10122800D36000207047036A1B880268C3F3080371
:10123800536003691BB9036A02330362E1E7036A77
:1012480001330362DDE7000070B5044602681369E4
:1012580023F44053C1680B43136183680269134345
:1012680042691343C2691A430168CB6823F41643E1
:1012780023F00C031343CB600268536923F44073D3
:1012880081690B435361C369B3F5004F36D00368D6
:10129800654A934200F09A8002F58062934200F01A
:1012A8009580FFF76FFF0026051846EB06012D18FD
:1012B80046EB0101CB0043EA5573EA00154619468F
:1012C80063689A009B0F281846EB0101FEF780FF20
:1012D800564DA5FB00325109642303FB11031B0182
:1012E8003233A5FB03235B0903F0F00202EB011282
:1012F80003F00F03216813448B6093E003684A4AA4
:10130800934233D002F5806293422FD0FFF73AFF21
:101318000026051846EB06012D1846EB0101CB0007
:1013280043EA5573EA00154619466268334692182F
:1013380046EB0303281846EB0101FEF749FF3B4D36
:10134800A5FB00325109642303FB1103DB00323390
:10135800A5FB03235B095A0002F4F87202EB0112A1
:1013680003F00703216813448B605BE0FFF71AFF63
:101378000026051846EB06012D1846EB0101CB00A7
:1013880043EA5573EA0015461946626833469218CF
:1013980046EB0303281846EB0101FEF719FF234D1E
:1013A800A5FB00325109642303FB1103DB00323330
:1013B800A5FB03235B095A0002F4F87202EB011241
:1013C80003F00703216813448B602BE0FFF7EAFE64
:1013D8000026051846EB06012D1846EB0101CB0047
:1013E80043EA5573EA001546194663689A009B0F4D
:1013F800281846EB0101FEF7EBFE0C4DA5FB003269
:101408005109642303FB11031B013233A5FB03239A
:101418005B0903F0F00202EB011203F00F032168ED
:1014280013448B6070BD00BF001001401F85EB5155
:1014380058B310B5044690F839300BB3242384F818
:1014480039302268D36823F40053D3602046FFF76D
:10145800FBFE2268136923F49043136122685369E1
:1014680023F02A0353612268D36843F40053D360FE
:101478000020E063202384F8393084F83A3010BD26
:1014880080F83830FFF712F9D8E701207047704725
:1014980008B50168CA6822F04002CA60202280F8B4
:1014A8003920FFF7F4FF002008BD704708B590F811
:1014B8003A30DBB2222B46D18368B3F5805F0FD078
:1014C80003690BBB03685A68836A591C81621A70E6
:1014D800C38D9BB2013B9BB2C385F3B1002008BD0D
:1014E800826A036943B903685B68C3F3080313801E
:1014F800836A02338362EBE703685B68DBB21380BD
:10150800836A01338362E3E703685B68826A511C7C
:10151800816203F07F031370DAE70268D36823F06F
:101528002003D3600268D36823F48073D360026811
:10153800536923F001035361202380F83A30FFF701
:10154800B4FF0020CBE70220C9E7704710B5044676
:1015580002681368D168526913F00F0005D113F0BF
:10156800200F02D011F0200F13D128B112F0010280
:1015780013D111F4907F10D113F0800F02D011F025
:10158800800F6CD113F0400F02D011F0400F6AD1D8
:1015980010BD2046FFF78AFFFAE713F0010F06D0C7
:1015A80011F4807F03D0E06B40F00100E06313F09A
:1015B800040F04D01AB1E06B40F00200E06313F0AE
:1015C800020F04D01AB1E06B40F00400E06313F09E
:1015D800080F07D011F0200F00D11AB1E26B42F0CA
:1015E8000802E263E26B002AD2D013F0200F02D087
:1015F80011F0200F21D123685B6903F04003E26BEF
:1016080012F0080F00D123B32046FFF7DBFD236853
:101618005A6912F0400F18D05A6922F040025A61F4
:10162800636B73B1124A1A65606BFFF7C1F9002842
:10163800AED0606B036D9847AAE72046FFF736FFE8
:10164800D9E72046FFF781FFA2E72046FFF77DFF95
:101658009EE72046FFF779FF0023E36398E72046DB
:10166800FFF7BEFD94E72046FFF712FF90E700BFA3
:101678007D16000808B5806B0023C385C384FFF777
:1016880064FF08BDDFF834D0002103E00C4B5B5841
:10169800435004310B480C4B42189A42F6D30B4A7C
:1016A80002E0002342F8043B094B9A42F9D3FFF7C2
:1016B800B7F800F011F8FEF7CFFF704700000220DE
:1016C80078170008000000200C0000200C00002003
:1016D800EC000020FEE7000070B50D4D0D4C641BBA
:1016E800A4100026A64209D10B4D0C4C00F020F89E
:1016F800641BA4100026A64205D170BD55F8043B12
:1017080098470136EEE755F8043B98470136F2E76B
:101718007017000870170008701700087417000881
:1017280002440346934200D1704703F8011BF9E7CE
:10173800F8B500BFF8BC08BC9E467047F8B500BFB6
:08174800F8BC08BC9E46704786
:101750000000000000000000010203040607080961
:08176000000000000102030477
:08176800A0EAFF7F0100000070
:04177000BD010008AF
:0417740099010008CF
:0C1778000024F40001000000100000003C
:040000050800168D4C
:00000001FF
